{
  "contractName": "TodoList",
  "abi": [
    {
      "constant": true,
      "inputs": [
        {
          "name": "",
          "type": "uint256"
        }
      ],
      "name": "tasks",
      "outputs": [
        {
          "name": "id",
          "type": "uint256"
        },
        {
          "name": "content",
          "type": "string"
        },
        {
          "name": "completed",
          "type": "bool"
        }
      ],
      "payable": false,
      "stateMutability": "view",
      "type": "function",
      "signature": "0x8d977672"
    },
    {
      "constant": true,
      "inputs": [],
      "name": "taskCount",
      "outputs": [
        {
          "name": "",
          "type": "uint256"
        }
      ],
      "payable": false,
      "stateMutability": "view",
      "type": "function",
      "signature": "0xb6cb58a5"
    },
    {
      "inputs": [],
      "payable": false,
      "stateMutability": "nonpayable",
      "type": "constructor",
      "signature": "constructor"
    },
    {
      "anonymous": false,
      "inputs": [
        {
          "indexed": false,
          "name": "id",
          "type": "uint256"
        },
        {
          "indexed": false,
          "name": "content",
          "type": "string"
        },
        {
          "indexed": false,
          "name": "completed",
          "type": "bool"
        }
      ],
      "name": "TaskCreated",
      "type": "event",
      "signature": "0x05d0fb833127fc08168556d0e7ca9554fc3f6bc843b3b7d2bf1c35aea6bab660"
    },
    {
      "anonymous": false,
      "inputs": [
        {
          "indexed": false,
          "name": "id",
          "type": "uint256"
        },
        {
          "indexed": false,
          "name": "completed",
          "type": "bool"
        }
      ],
      "name": "TaskCompleted",
      "type": "event",
      "signature": "0xe21fa966ca5cd02748c0752352d18c48165e61cb55b4c29cccf924b5a95fcff1"
    },
    {
      "anonymous": false,
      "inputs": [
        {
          "indexed": false,
          "name": "id",
          "type": "uint256"
        },
        {
          "indexed": false,
          "name": "completed",
          "type": "bool"
        }
      ],
      "name": "TaskUncompleted",
      "type": "event",
      "signature": "0x1c4c54d02b29f98b135bb975d0421853a4cda985a8f40eb85eb77210db1862ee"
    },
    {
      "constant": false,
      "inputs": [
        {
          "name": "_content",
          "type": "string"
        }
      ],
      "name": "createTask",
      "outputs": [],
      "payable": false,
      "stateMutability": "nonpayable",
      "type": "function",
      "signature": "0x111002aa"
    },
    {
      "constant": false,
      "inputs": [
        {
          "name": "_id",
          "type": "uint256"
        }
      ],
      "name": "toggleCompleted",
      "outputs": [],
      "payable": false,
      "stateMutability": "nonpayable",
      "type": "function",
      "signature": "0x455f5024"
    },
    {
      "constant": false,
      "inputs": [
        {
          "name": "_idArray",
          "type": "uint256[]"
        }
      ],
      "name": "toggleUncompleted",
      "outputs": [],
      "payable": false,
      "stateMutability": "nonpayable",
      "type": "function",
      "signature": "0x387a17df"
    }
  ],
  "bytecode": "0x60806040526000805534801561001457600080fd5b5060408051808201909152600981527f54657374205461736b0000000000000000000000000000000000000000000000602082015261005b90640100000000610060810204565b61021f565b60008054600190810180835560408051606081018252828152602080820187815282840187905293865284815291909420845181559151805192936100ad93908501929190910190610184565b5060408201518160020160006101000a81548160ff0219169083151502179055509050507f05d0fb833127fc08168556d0e7ca9554fc3f6bc843b3b7d2bf1c35aea6bab660600054826000604051808481526020018060200183151515158152602001828103825284818151815260200191508051906020019080838360005b8381101561014557818101518382015260200161012d565b50505050905090810190601f1680156101725780820380516001836020036101000a031916815260200191505b5094505050505060405180910390a150565b828054600181600116156101000203166002900490600052602060002090601f016020900481019282601f106101c557805160ff19168380011785556101f2565b828001600101855582156101f2579182015b828111156101f25782518255916020019190600101906101d7565b506101fe929150610202565b5090565b61021c91905b808211156101fe5760008155600101610208565b90565b6108f08061022e6000396000f3fe60806040526004361061006c5763ffffffff7c0100000000000000000000000000000000000000000000000000000000600035041663111002aa8114610071578063387a17df14610126578063455f5024146101d65780638d97767214610200578063b6cb58a5146102b4575b600080fd5b34801561007d57600080fd5b506101246004803603602081101561009457600080fd5b8101906020810181356401000000008111156100af57600080fd5b8201836020820111156100c157600080fd5b803590602001918460018302840111640100000000831117156100e357600080fd5b91908080601f0160208091040260200160405190810160405280939291908181526020018383808284376000920191909152509295506102db945050505050565b005b34801561013257600080fd5b506101246004803603602081101561014957600080fd5b81019060208101813564010000000081111561016457600080fd5b82018360208201111561017657600080fd5b8035906020019184602083028401116401000000008311171561019857600080fd5b9190808060200260200160405190810160405280939291908181526020018383602002808284376000920191909152509295506103ff945050505050565b3480156101e257600080fd5b50610124600480360360208110156101f957600080fd5b50356105f0565b34801561020c57600080fd5b5061022a6004803603602081101561022357600080fd5b5035610750565b604051808481526020018060200183151515158152602001828103825284818151815260200191508051906020019080838360005b8381101561027757818101518382015260200161025f565b50505050905090810190601f1680156102a45780820380516001836020036101000a031916815260200191505b5094505050505060405180910390f35b3480156102c057600080fd5b506102c96107ff565b60408051918252519081900360200190f35b600080546001908101808355604080516060810182528281526020808201878152828401879052938652848152919094208451815591518051929361032893908501929190910190610805565b5060408201518160020160006101000a81548160ff0219169083151502179055509050507f05d0fb833127fc08168556d0e7ca9554fc3f6bc843b3b7d2bf1c35aea6bab660600054826000604051808481526020018060200183151515158152602001828103825284818151815260200191508051906020019080838360005b838110156103c05781810151838201526020016103a8565b50505050905090810190601f1680156103ed5780820380516001836020036101000a031916815260200191505b5094505050505060405180910390a150565b805160005b818110156105eb57610414610883565b60016000858481518110151561042657fe5b9060200190602002015181526020019081526020016000206060604051908101604052908160008201548152602001600182018054600181600116156101000203166002900480601f0160208091040260200160405190810160405280929190818152602001828054600181600116156101000203166002900480156104ed5780601f106104c2576101008083540402835291602001916104ed565b820191906000526020600020905b8154815290600101906020018083116104d057829003601f168201915b50505091835250506002919091015460ff1615156020909101526040810180511590528451909150819060019060009087908690811061052957fe5b906020019060200201518152602001908152602001600020600082015181600001556020820151816001019080519060200190610567929190610805565b50604091909101516002909101805460ff191691151591909117905583517f1c4c54d02b29f98b135bb975d0421853a4cda985a8f40eb85eb77210db1862ee908590849081106105b357fe5b90602001906020020151826040015160405180838152602001821515151581526020019250505060405180910390a150600101610404565b505050565b6105f8610883565b60008281526001602081815260409283902083516060810185528154815281840180548651600296821615610100026000190190911695909504601f810185900485028601850190965285855290949193858401939092908301828280156106a15780601f10610676576101008083540402835291602001916106a1565b820191906000526020600020905b81548152906001019060200180831161068457829003601f168201915b50505091835250506002919091015460ff161515602091820152604080830180511590526000858152600180845291902083518155838301518051949550859491936106f293850192910190610805565b50604091820151600291909101805460ff1916911515919091179055818101518151848152901515602082015281517fe21fa966ca5cd02748c0752352d18c48165e61cb55b4c29cccf924b5a95fcff1929181900390910190a15050565b600160208181526000928352604092839020805481840180548651600296821615610100026000190190911695909504601f810185900485028601850190965285855290949193929091908301828280156107ec5780601f106107c1576101008083540402835291602001916107ec565b820191906000526020600020905b8154815290600101906020018083116107cf57829003601f168201915b5050506002909301549192505060ff1683565b60005481565b828054600181600116156101000203166002900490600052602060002090601f016020900481019282601f1061084657805160ff1916838001178555610873565b82800160010185558215610873579182015b82811115610873578251825591602001919060010190610858565b5061087f9291506108a7565b5090565b60606040519081016040528060008152602001606081526020016000151581525090565b6108c191905b8082111561087f57600081556001016108ad565b9056fea165627a7a7230582016d4cde09b62efe3ab5bfe9a1ee6f57b756fe458f1ae3a68a25d3e29604a182f0029",
  "source": "pragma solidity ^0.5.0;\r\n\r\ncontract TodoList {\r\n  uint public taskCount = 0;\r\n\r\n  struct Task {\r\n    uint id;\r\n    string content;\r\n    bool completed;\r\n  }\r\n\r\n  mapping(uint => Task) public tasks;\r\n\r\n  event TaskCreated(\r\n    uint id,\r\n    string content,\r\n    bool completed\r\n  );\r\n\r\n  event TaskCompleted(\r\n    uint id,\r\n    bool completed\r\n  );\r\n\r\n  event TaskUncompleted(\r\n    uint id,\r\n    bool completed\r\n  );\r\n\r\n  constructor() public {\r\n    \r\n    createTask(\"Test Task\");\r\n  }\r\n\r\n  function createTask(string memory _content) public {\r\n    taskCount ++;\r\n    tasks[taskCount] = Task(taskCount, _content, false);\r\n    emit TaskCreated(taskCount, _content, false);\r\n  }\r\n\r\n  function toggleCompleted(uint _id) public {\r\n    Task memory _task = tasks[_id];\r\n    _task.completed = !_task.completed;\r\n    tasks[_id] = _task;\r\n    emit TaskCompleted(_id, _task.completed);\r\n  }\r\n\r\n\r\n  function toggleUncompleted(uint[] memory _idArray) public {\r\n      uint arrayLength = _idArray.length;\r\n      for (uint i=0; i<arrayLength; i++) {\r\n        Task memory _task = tasks[_idArray[i]];\r\n        _task.completed = !_task.completed;\r\n        tasks[_idArray[i]] = _task;\r\n        emit TaskUncompleted(_idArray[i], _task.completed);\r\n      }  \r\n    }\r\n}",
  "sourcePath": "C:/Users/zgabr/Documents/Courses Winter 2022/CPS 831 Software Engineering II/Project/CPS831_FInal_Project/contracts/TodoList.sol",
  "compiler": {
    "name": "solc",
    "version": "0.5.0+commit.1d4f565a.Emscripten.clang"
  },
  "schemaVersion": "3.0.1",
  "updatedAt": "2022-04-14T02:03:35.012Z",
  "devdoc": {
    "methods": {}
  },
  "userdoc": {
    "methods": {}
  }
}